:100000000C9446000C9465000C9465000C946500FB
:100010000C9465000C9465000C9465000C946500CC
:100020000C9465000C9465000C9465000C946500BC
:100030000C946B000C9465000C9465000C946500A6
:100040000C9465000C9465000C9465000C9465009C
:100050000C9465000C9465000C9465000C9465008C
:100060000C9465000C9465000C9465000C9465007C
:100070000C9465000C9465000C9465000C9465006C
:100080000C9465000C9465000C94650011241FBE4F
:10009000CFEFD0E1DEBFCDBF11E0A0E0B1E0EAEBF1
:1000A000F2E000E00BBF02C007900D92AA33B10747
:1000B000D9F711E0AAE3B1E001C01D92A334B10762
:1000C000E1F70E9421010C945B010C9400009298CE
:1000D0000895929A08951F920F920FB60F921124CD
:1000E0000BB60F922F933F934F935F936F937F9332
:1000F0008F939F93AF93BF93EF93FF9380913A01B8
:10010000853030F00E9469008EB58E7F8EBD86C02E
:1001100080913B01882389F00E94690080913D0114
:100120008F5F80933D0180913D018A3008F476C055
:1001300010923B0110923D0171C080913C018823D7
:1001400079F180913E01882331F080913F01863022
:1001500010F40E94670080913E018F5F80933E0102
:1001600080913E01833008F459C010923C011092F6
:10017000400110923E0180913F018F5F80933F01CB
:1001800080913F01873008F449C010923F0180916F
:100190003A018F5F80933A0181E080933B013EC03A
:1001A00080913F0120914001E0914101F091420195
:1001B00094E0899FE00DF11D112480819181A2813D
:1001C000B38104C0B695A795979587952A95D2F7E0
:1001D00080FF0AC080910001882319F00E94670007
:1001E00009C00E9469000BC080910001882329F09A
:1001F0000E946900109200010AC00E94670081E01D
:1002000080930001809140018F5F80934001809135
:1002100040018C3019F481E080933C01FF91EF9113
:10022000BF91AF919F918F917F916F915F914F910E
:100230003F912F910F900BBE0F900FBE0F901F900C
:10024000189581E091E090934201809341018A9A50
:100250000E9467002FEF8FE392E021508040904092
:10026000E1F700C000000E9469002FEF8FE392E0E9
:10027000215080409040E1F700C000000E946900DA
:100280008CE096E00197F1F700000E94670082EC95
:1002900095E00197F1F700C080E498E19BBD8ABD2D
:1002A0008EB581608EBD8EB588608EBD87B780614A
:0A02B00087BF7894FFCFF894FFCFCA
:1002BA00018B0A0000690C0000810C000023080071
:1002CA00003B08000067080000310D00008B0A009F
:1002DA0000690C0000810C0000230D00003B08009F
:0A02EA0000FF0900002908000000D1
:00000001FF
